:100000000C946A000C9492000C9492000C94920050
:100010000C9492000C9492000C9492000C94920018
:100020000C9492000C9492000C9492000C94920008
:100030000C9492000C9492000C9492000C949200F8
:100040000C9480040C9492000C944F040C9429049A
:100050000C9492000C9492000C9492000C949200D8
:100060000C9492000C94920028062A063406360658
:100070003C063E0644064606000000002400270019
:100080002A0000000000250028002B0000000000CE
:1000900023002600290004040404040404040202CA
:1000A00002020202030303030303010204081020F7
:1000B0004080010204081020010204081020000002
:1000C0000008000201000003040700000000000017
:1000D0000000CA0411241FBECFEFD8E0DEBFCDBFA1
:1000E00011E0A0E0B1E0E8EEF0E102C005900D9271
:1000F000AA3AB107D9F723E0AAEAB1E001C01D92FC
:10010000A73CB207E1F710E0CAE6D0E004C02197AF
:10011000FE010E946008C936D107C9F70E941E057A
:100120000C9472080C940000E091AF01F091B001C2
:100130000190F081E02D682F8FEA91E00994CF9231
:10014000DF92EF92FF920F931F93CF93DF936C0197
:100150007A018B01C0E0D0E0CE15DF0589F0D8012F
:100160006D918D01D601ED91FC910190F081E02D12
:10017000C6010995892B11F47E0102C02196ECCFAE
:10018000C701DF91CF911F910F91FF90EF90DF900A
:10019000CF900895089580E090E00895FC01538D7C
:1001A000448D252F30E0842F90E0821B930B541751
:1001B00010F0CF96089501970895FC01918D828DDE
:1001C000981759F0828DDF01A80FB11D5D968C91B3
:1001D000928D9F5F928F90E008958FEF9FEF08952B
:1001E000FC01918D828D981731F0828DE80FF11D01
:1001F000858D90E008958FEF9FEF0895FC01918D1C
:10020000828D981B892F90E008958FEA91E00E94DB
:10021000FE0021E0892B09F420E0822F0895FC01E3
:10022000848DDF01A80FB11DA35EBE4F2C91848D7C
:1002300090E001968F739927848FA689B7892C93B4
:10024000A089B1898C9180648C93938D848D98134F
:1002500006C00288F389E02D80818F7D8083089518
:10026000EF92FF920F931F93CF93DF93EC0181E006
:10027000888F9B8D8C8D981305C0E889F9898081C2
:1002800085FD24C0F62E0B8D10E00F5F1F4F0F73FE
:100290001127E02E8C8DE8120CC00FB607FCFACFA8
:1002A000E889F989808185FFF5CFCE010E940F0191
:1002B000F1CF8B8DFE01E80FF11DE35EFE4FF08262
:1002C0000B8FEA89FB898081806207C0EE89FF89F4
:1002D0006083E889F98980818064808381E090E08F
:1002E000DF91CF911F910F91FF90EF900895CF93E1
:1002F000DF93EC01888D8823C9F0EA89FB8980812E
:1003000085FD05C0A889B9898C9186FD0FC00FB6FF
:1003100007FCF5CF808185FFF2CFA889B9898C9140
:1003200085FFEDCFCE010E940F01E7CFDF91CF9186
:10033000089580E090E0892B29F00E940501811149
:100340000C9400000895833081F028F4813099F0F6
:100350008230A1F008958730A9F08830B9F0843058
:10036000D1F4809180008F7D03C0809180008F77D1
:1003700080938000089584B58F7702C084B58F7D07
:1003800084BD08958091B0008F7703C08091B00044
:100390008F7D8093B00008951F93CF93DF93282F14
:1003A00030E0F901E254FF4F8491F901E655FF4F27
:1003B000D491F901EA56FF4FC491CC23C9F0162F0E
:1003C00081110E94A301EC2FF0E0EE0FFF1FEE570A
:1003D000FF4FA591B4918FB7F894111105C09C916E
:1003E000ED2FE095E92302C0EC91ED2BEC938FBF4C
:1003F000DF91CF911F910895CF93DF9390E0FC019F
:10040000E655FF4F2491FC01EA56FF4F8491882363
:1004100061F190E0880F991FFC01E858FF4FC591EA
:10042000D491FC01EE57FF4FA591B491611109C021
:100430009FB7F8948881209582238883EC912E239E
:100440000BC0623061F49FB7F8943881822F809599
:1004500083238883EC912E2B2C939FBF06C08FB7EC
:10046000F894E8812E2B28838FBFDF91CF910895D8
:100470001F93CF93DF93182FEB0161E00E94FC01E3
:10048000209711F460E004C0CF3FD10539F461E05A
:10049000812FDF91CF911F910C94CC01E12FF0E0DF
:1004A000E254FF4FE491E330F9F048F4E130B9F061
:1004B000E230A1F584B5806284BDC8BD34C0E730A8
:1004C000E9F0E83019F1E43049F58091800080626C
:1004D00080938000D0938B00C0938A0024C084B5A1
:1004E000806884BDC7BD1FC08091800080688093F4
:1004F0008000D0938900C093880015C08091B0001F
:1005000080688093B000C093B3000DC08091B000AC
:1005100080628093B000C093B40005C0C038D1059C
:100520000CF0B5CFAFCFDF91CF911F9108953FB7BA
:10053000F8948091AB019091AC01A091AD01B09184
:10054000AE0126B5A89B05C02F3F19F00196A11D4D
:10055000B11D3FBFBA2FA92F982F8827820F911D59
:10056000A11DB11DBC01CD0142E0660F771F881FA0
:10057000991F4A95D1F708958F929F92AF92BF929B
:10058000CF92DF92EF92FF926B017C010E94970263
:100590004B015C01C114D104E104F104F1F00E94AB
:1005A0009702DC01CB0188199909AA09BB09883E89
:1005B0009340A105B10570F321E0C21AD108E1080A
:1005C000F10888EE880E83E0981EA11CB11CC114AE
:1005D000D104E104F10419F7DDCFFF90EF90DF9033
:1005E000CF90BF90AF909F908F900895009769F043
:1005F000FC0101900020E9F73197AF01481B590B2E
:10060000BC018FEA91E00C949F0080E090E0089597
:100610008F929F92AF92BF920F931F93CF93DF93CE
:10062000CDB7DEB7A1970FB6F894DEBF0FBECDBF32
:1006300019A2423008F44AE08E010F5D1F4F842E4C
:10064000912CA12CB12CA50194010E942F08E62F1A
:10065000B901CA0101501109EA3014F4E05D01C08A
:10066000E95CD801EC93232B242B252B61F7C801DF
:100670000E94F602A1960FB6F894DEBF0FBECDBF62
:10068000DF91CF911F910F91BF90AF909F908F906E
:100690000895CF92DF92EF92FF92CF93DF936C0198
:1006A000990FEE08FF08F7FE17C08DE20E94940034
:1006B000EC0166277727CB016C197D098E099F090C
:1006C0004AE00E9408038C0F9D1FDF91CF91FF909D
:1006D000EF90DF90CF9008954AE0C701B601DF9117
:1006E000CF91FF90EF90DF90CF900C940803CF92C2
:1006F000DF92EF92FF92CF93DF93EC018AEC860FAB
:10070000C62ED12CE12CF12C803118F482E891E036
:1007100002C089E891E00E94F6024AE0C701B601F2
:100720000E94080387E891E00E94F602CE010E9431
:1007300049038AE0DF91CF91FF90EF90DF90CF9057
:100740000C9494000F931F93CF93DF93C7E0D0E0F6
:10075000082F10E0B8010C2E02C0759567950A9419
:10076000E2F76170772784E00E94CC0161E082E0CB
:100770000E94CC0160E082E00E94CC01219750F7FA
:10078000DF91CF911F910F910895CF93DF93309117
:1007900053032091540340915503EC01CC0FDD1F0E
:1007A000C80FD91FA0E0B0E0019797FD0DC0FD0173
:1007B000EC0FFD1FEC5EFC4F5081352B5181252B3A
:1007C0005281452B1397F0CF30935303209354035A
:1007D00040935503CB010996FB01EE0FFF1F6E0FEF
:1007E0007F1FA0E0B0E013978A3091056CF0FD0107
:1007F000E60FF71FEC5EFC4F51A1352B52A1252BC4
:1008000053A1452B0197EFCF30935303209354030B
:100810004093550360E083E00E94CC018091550332
:100820000E94A203809154030E94A203809153036B
:100830000E94A20361E083E00E94CC011092530366
:100840001092540310925503DF91CF9108950E94A6
:100850006D081F920F920FB60F9211242F933F93A2
:100860004F935F936F937F938F939F93AF93BF93B8
:10087000EF93FF938FEA91E00E940F01FF91EF91B8
:10088000BF91AF919F918F917F916F915F914F91A8
:100890003F912F910F900FBE0F901F9018951F92B0
:1008A0000F920FB60F9211242F938F939F93EF9374
:1008B000FF93E091BF01F091C0018081E091C501FB
:1008C000F091C60182FD11C090818091C8018F5FB7
:1008D0002091C901821751F0E091C801F0E0E15583
:1008E000FE4F958F8093C80101C08081FF91EF91E9
:1008F0009F918F912F910F900FBE0F901F90189581
:100900001F920F920FB60F9211242F933F938F9344
:100910009F93AF93BF9380910C0390910D03A0918F
:100920000E03B0910F033091AA0123E0230F2D375E
:1009300020F40196A11DB11D05C026E8230F0296E3
:10094000A11DB11D2093AA0180930C0390930D0368
:10095000A0930E03B0930F038091AB019091AC0173
:10096000A091AD01B091AE010196A11DB11D809382
:10097000AB019093AC01A093AD01B093AE01BF91D8
:10098000AF919F918F913F912F910F900FBE0F903C
:100990001F901895EFEAF1E01382128288EE93E03F
:1009A000A0E0B0E084839583A683B78384E791E0D9
:1009B0009183808385EC90E09587848784EC90E038
:1009C0009787868780EC90E0918B808B81EC90E01C
:1009D000938B828B82EC90E0958B848B86EC90E0FD
:1009E000978B868B118E128E138E148E80E7E0E02B
:1009F000F1E0A6E5B3E001900D928A95E1F7E4E11C
:100A0000F3E0108211821282109253031092540369
:100A1000109255032FB7F89480910C0390910D0319
:100A2000A0910E03B0910F032FBF809310039093FA
:100A30001103A0931203B09313030895789484B51F
:100A4000826084BD84B5816084BD85B5826085BDCA
:100A500085B5816085BD80916E00816080936E0058
:100A6000109281008091810082608093810080914A
:100A700081008160809381008091800081608093FB
:100A800080008091B10084608093B1008091B000BB
:100A900081608093B00080917A00846080937A00B6
:100AA00080917A00826080937A0080917A008160E0
:100AB00080937A0080917A00806880937A00109207
:100AC000C10061E08DE00E94FC0161E08DE00E94C8
:100AD000CC01E091BF01F091C00182E08083E09100
:100AE000BB01F091BC011082E091BD01F091BE010B
:100AF00083E380831092C701E091C301F091C401A8
:100B000086E08083E091C101F091C2018081806123
:100B10008083E091C101F091C2018081886080836F
:100B2000E091C101F091C201808180688083E091F1
:100B3000C101F091C20180818F7D808360E081E1FD
:100B40000E94FC0160E083E10E94FC0160E082E120
:100B50000E94FC0161E08EE00E94FC0161E08FE0F8
:100B60000E94FC0161E080E10E94FC0161E082E002
:100B70000E94FC0161E083E00E94FC0161E084E0EE
:100B80000E94FC0161E08DE00E94FC0162E087E0D0
:100B90000E94FC0162E08BE00E94FC0180E090E09A
:100BA000FC01EC5EFC4F13821482158203968C3399
:100BB0009105B1F730E13093520320E220934F03C7
:100BC00090E490934C0380E88093490371E0709324
:100BD000450362E06093420354E050933F0348E0D2
:100BE00040933C03309339032093360390933303AF
:100BF0008093300370932C03609329035093260352
:100C0000409323033093200320931D0390931A03F2
:100C10008093170308E513E096E5A92E93E0B92E1B
:100C2000E12CF12C44244A9423E0522E612C712CA7
:100C3000D801EC918091C603E817C1F18E2F90E0A6
:100C40008830910578F5FC01EC5CFF4F0C9460084E
:100C500060E001C061E08EE00E94CC0160E08FE0C6
:100C60000E94CC0160E01BC060E001C061E08EE04A
:100C70000E94CC0161E0F3CF60E001C061E08EE052
:100C80000E94CC0160E007C060E001C061E08EE03E
:100C90000E94CC0161E08FE00E94CC0161E080E124
:100CA0000E94CC01F80180818093C603C7018A5A53
:100CB0009C4F6C01DC0113962C91139715968C9127
:100CC000811117C02E3008F02E5027702064209319
:100CD0007C0080917A00806480937A0080917A0011
:100CE00086FDFCCFC091780080917900D0E0D82BB0
:100CF00027C030E0F901E254FF4F8491F901E65535
:100D0000FF4FC491F901EA56FF4FD491DD23A1F0C2
:100D100081110E94A301ED2FF0E0EE0FFF1FE457B9
:100D2000FF4FA591B491EC91CE2391E080E009F4BE
:100D300090E0C92FD82F02C0C0E0D0E0B1E0CB27AF
:100D4000F501D183C083D60114969C901497169612
:100D5000DC90F80180818450833088F420EB34E00B
:100D6000DE010E946608A30192010E941008DA01C8
:100D7000C90188559240A109B109692D09C0692DA1
:100D8000CE010E947703DD2029F061E0690DCE01DC
:100D90000E947703095F1F4FF7E0EF0EF11C87E019
:100DA000A80EB11C90E7E916F10409F041CF80E9E3
:100DB00091E00E94F60260E08DE00E94CC01C0E06C
:100DC000D0E0BE018DE00E943802BE018BE00E949F
:100DD0003802BE0189E00E943802BE018AE00E940A
:100DE0003802BE0185E00E943802BE0186E00E9402
:100DF000380262E070E080E090E00E94BC02219640
:100E0000CF3FD105F1F6CFEFD0E0BE018DE00E94DB
:100E10003802BE018BE00E943802BE0189E00E94C8
:100E20003802BE018AE00E943802BE0185E00E94BD
:100E30003802BE0186E00E94380262E070E080E085
:100E400090E00E94BC02219701F7C0E0D0E060E092
:100E500070E0CE010E94C50364E170E080E090E0A4
:100E60000E94BC022196CA30D10589F7C0E0D0E0CB
:100E7000BE0180E090E00E94C50364E170E080E084
:100E800090E00E94BC022196CA30D10589F768EC37
:100E900070E080E090E00E94BC026FEF70E08DE0B7
:100EA0000E9438026FEF70E08BE00E9438026FEF13
:100EB00070E089E00E9438026FEF70E08AE00E94E3
:100EC00038026FEF70E085E00E9438026FEF70E04B
:100ED00086E00E9438026AE070E08AE090E00E94BA
:100EE000C50368EC70E080E090E00E94BC0260E026
:100EF00070E08DE00E94380260E070E08BE00E94BC
:100F0000380260E070E089E00E94380260E070E042
:100F10008AE00E94380260E070E085E00E943802BA
:100F200060E070E086E00E94380260E070E080E0FF
:100F300090E00E94C50368EC70E080E090E00E94C1
:100F4000BC026FEF70E08DE00E9438026FEF70E03E
:100F50008BE00E9438026FEF70E089E00E94380257
:100F60006FEF70E08AE00E9438026FEF70E085E07A
:100F70000E9438026FEF70E086E00E9438026AE05B
:100F800070E08AE090E00E94C50368EC70E080E0C9
:100F900090E00E94BC0260E070E08DE00E943802A8
:100FA00060E070E08BE00E94380260E070E089E071
:100FB0000E94380260E070E08AE00E94380260E03F
:100FC00070E085E00E94380260E070E086E00E94F8
:100FD000380260E070E080E090E00E94C50368ECB9
:100FE00070E080E090E00E94BC02C0E0D0E0BE0172
:100FF000CE010E94C50368EC70E080E090E00E94A2
:10100000BC022196CB30D10591F78DE991E00E9489
:10101000F60287EA91E00E94F6020E949901E5CF6C
:10102000052E97FB1EF400940E94270857FD07D059
:101030000E942F0807FC03D04EF40C94270850950B
:101040004095309521953F4F4F4F5F4F08959095B4
:101050008095709561957F4F8F4F9F4F0895A1E2C6
:101060001A2EAA1BBB1BFD010DC0AA1FBB1FEE1F22
:10107000FF1FA217B307E407F50720F0A21BB30B6D
:10108000E40BF50B661F771F881F991F1A9469F7E9
:1010900060957095809590959B01AC01BD01CF0145
:1010A0000895A29FB001B39FC001A39F700D811D41
:1010B0001124911DB29F700D811D1124911D089561
:1010C000EE0FFF1F0590F491E02D09940E94510846
:1010D000B7FF0895821B930B089581E090E0F89488
:0810E0000C947208F894FFCF94
:1010E800000000073201000000000B33010000007F
:1010F8000711360000000005113700000000041336
:101108003A0001000002123C0001000001133E00F9
:101118000100000512400001000003124200010016
:1011280000041246000000000612470000000007F5
:101138001248000000000212490000000001124A93
:101148000000000000124B0000000006114F0101D2
:101158000000000030019F00CE007701FE00DD0096
:10116800F00053564C2030200053505220302000BD
:10117800474D5420302035362030200A006C6F6FE0
:0A1188007020646F6E65000D0A0010
:107800000C94343C0C94513C0C94513C0C94513CE1
:107810000C94513C0C94513C0C94513C0C94513CB4
:107820000C94513C0C94513C0C94513C0C94513CA4
:107830000C94513C0C94513C0C94513C0C94513C94
:107840000C94513C0C94513C0C94513C0C94513C84
:107850000C94513C0C94513C0C94513C0C94513C74
:107860000C94513C0C94513C11241FBECFEFD8E036
:10787000DEBFCDBF11E0A0E0B1E0ECE9FFE702C060
:1078800005900D92A230B107D9F712E0A2E0B1E065
:1078900001C01D92AD30B107E1F70E942D3D0C945F
:1078A000CC3F0C94003C982F959595959595959582
:1078B000905D8F708A307CF0282F295A8091C0000B
:1078C00085FFFCCF9093C6008091C00085FFFCCF60
:1078D0002093C6000895282F205DF0CF982F809127
:1078E000C00085FFFCCF9093C6000895EF92FF92F1
:1078F0000F931F93EE24FF2487018091C00087FD22
:1079000017C00894E11CF11C011D111D81E4E8164B
:1079100082E4F8068FE0080780E0180770F3E09132
:107920000401F091050109958091C00087FFE9CF1E
:107930008091C6001F910F91FF90EF9008950E94D3
:10794000763C982F8091C00085FFFCCF9093C600B5
:1079500091362CF490330CF09053892F089597555D
:10796000892F08951F930E949F3C182F0E949F3CCF
:107970001295107F810F1F9108951F93182F882350
:1079800021F00E94763C1150E1F71F9108951F935A
:10799000182F0E94763C803249F0809103018F5F5E
:1079A000809303018530C1F01F9108958091C0003C
:1079B00085FFFCCF84E18093C6008091C00085FFE5
:1079C000FCCF1093C6008091C00085FFFCCF80E102
:1079D0008093C6001F910895E0910401F091050184
:1079E00009951F9108950E94763C803241F0809164
:1079F00003018F5F80930301853081F008958091AA
:107A0000C00085FFFCCF84E18093C6008091C00058
:107A100085FFFCCF80E18093C6000895E0910401CA
:107A2000F09105010995089540E951E08823A1F0FE
:107A30002D9A28EE33E0FA013197F1F721503040CA
:107A4000D1F72D9828EE33E0FA013197F1F7215064
:107A50003040D1F7815061F708953F924F925F9285
:107A60006F927F928F929F92AF92BF92CF92DF924E
:107A7000EF92FF920F931F93CF93DF93000080E16B
:107A80008093C4001092C50088E18093C10086E015
:107A90008093C2005098589A259A81E00E94143D24
:107AA00024E1F22E9EE1E92E85E9D82E0FE0C02ECA
:107AB00010E1B12EAA24A394B1E49B2EA6E58A2E50
:107AC000F2E57F2EE0E26E2E79E4572E63E5462E36
:107AD00050E5352E0E94763C8033B1F18133B9F107
:107AE000803409F46FC0813409F476C0823409F41B
:107AF00085C0853409F488C0803531F1823521F1A3
:107B0000813511F1853509F485C0863509F48DC0BC
:107B1000843609F496C0843709F403C1853709F423
:107B200072C1863709F466C0809103018F5F80932C
:107B30000301853079F6E0910401F0910501099582
:107B40000E94763C803351F60E94F33CC3CF0E94E2
:107B5000763C803249F78091C00085FFFCCFF092DF
:107B6000C6008091C00085FFFCCF9092C600809136
:107B7000C00085FFFCCF8092C6008091C00085FFC9
:107B8000FCCF7092C6008091C00085FFFCCF609250
:107B9000C6008091C00085FFFCCF5092C600809146
:107BA000C00085FFFCCF4092C6008091C00085FFD9
:107BB000FCCF3092C6008091C00085FFFCCFB09210
:107BC000C60088CF0E94763C863808F4BDCF0E945C
:107BD000763C0E94F33C7ECF0E94763C803809F4CC
:107BE0009CC0813809F40BC1823809F43CC1883942
:107BF00009F48FC080E00E94C73C6CCF84E10E94F2
:107C0000BD3C0E94F33C66CF85E00E94BD3C0E94D3
:107C1000F33C60CF0E94763C809306010E94763C44
:107C2000809307010E94F33C55CF0E94763C80333D
:107C300009F41DC183E00E94BD3C80E00E94C73C66
:107C400049CF0E94763C809309020E94763C809343
:107C5000080280910C028E7F80930C020E94763C79
:107C6000853409F415C18091080290910902892B8D
:107C700089F000E010E00E94763CF801E85FFE4FDA
:107C800080830F5F1F4F80910802909109020817AF
:107C9000190788F30E94763C803209F045CF809125
:107CA0000C0280FF01C16091060170910701660F0F
:107CB000771F7093070160930601A0910802B091AD
:107CC00009021097C9F0E8E0F1E09B01AD014E0F09
:107CD0005F1FF999FECF32BD21BD819180BDFA9A17
:107CE000F99A2F5F3F4FE417F50799F76A0F7B1F4B
:107CF00070930701609306018091C00085FFFCCF5F
:107D0000F092C6008091C00085FFFCCFB092C60003
:107D1000E1CE83E00E94C73CDDCE82E00E94C73CFA
:107D2000D9CE0E94763C809309020E94763C8093D3
:107D300008028091060190910701880F991F909386
:107D40000701809306010E94763C853409F4A6C0A1
:107D500080910C028E7F80930C020E94763C8032D0
:107D600009F0B8CE8091C00085FFFCCFF092C6002C
:107D7000609108027091090261157105B9F140E046
:107D800050E080910C02A82FA170B82FB27011C0E2
:107D9000BB2309F45CC0E0910601F0910701319624
:107DA000F0930701E09306014F5F5F4F46175707B7
:107DB000E8F4AA2369F3F999FECF209106013091E6
:107DC000070132BD21BDF89A90B58091C00085FFB2
:107DD000FCCF9093C6002F5F3F4F30930701209355
:107DE00006014F5F5F4F4617570718F38091C00099
:107DF00085FDE5CE8091C00085FFF8CFE0CE81E023
:107E00000E94C73C67CE0E94763C803209F08CCE3F
:107E10008091C00085FFFCCFF092C6008091C00029
:107E200085FFFCCFE092C6008091C00085FFFCCFAB
:107E3000D092C6008091C00085FFFCCFC092C600E2
:107E40008091C00085FFFCCFB092C60043CEE09188
:107E50000601F091070194918091C00085FFFCCF4D
:107E60009093C6009CCF80E10E94C73C33CE0E9415
:107E7000763C0E94763C182F0E94763C112309F430
:107E800083C0113009F484C08FE00E94C73C22CE29
:107E900080910C02816080930C02E5CE80910C02EF
:107EA000816080930C0259CF809107018823880F4D
:107EB000880B8A2180930B02809106019091070123
:107EC000880F991F90930701809306018091080203
:107ED00080FF09C080910802909109020196909359
:107EE000090280930802F894F999FECF1127E091D6
:107EF0000601F0910701C8E0D1E08091080290915D
:107F00000902103091F40091570001700130D9F34B
:107F100003E000935700E89500915700017001308D
:107F2000D9F301E100935700E89509901990009169
:107F3000570001700130D9F301E000935700E89534
:107F40001395103498F011270091570001700130FB
:107F5000D9F305E000935700E895009157000170B0
:107F60000130D9F301E100935700E895329602976A
:107F700009F0C7CF103011F00296E5CF112480919F
:107F8000C00085FFB9CEBCCE8EE10E94C73CA2CD19
:0C7F900085E90E94C73C9ECDF894FFCF0D
:027F9C00800063
:040000030000780081
:00000001FF